:100000000C9448040C9470040C9470040C947004C8
:100010000C9470040C9470040C9470040C94700490
:100020000C9470040C9470040C9470040C941D1BBC
:100030000C9470040C9470040C9470040C94700470
:100040000C94D31A0C9470040C9470040C947004E7
:100050000C9470040C9470040C9470040C94700450
:100060000C9470040C947004175344001613780019
:10007000161314001510200015201000540A03E177
:1000800081867F3E186D830F0F0E018386603318C3
:100090006DC3198F1803C38E6033186DE330CF180A
:1000A00003C39E603630CDE360CF3006C79E7E3EF0
:1000B00030CDB360CF300CC6F6603330D9B660CFE8
:1000C00033CFCCF66061B0DB1E60CF30D86CE6C0B9
:1000D00061B0DB1E618F19986CC6C063B19B0E3393
:1000E0000F0FB078C6FF7E1F1B061E0F40240000B6
:1000F0000000000000000000000000000000000000
:1001000000000000000000000000000000000000EF
:100110000000000000000000000000000000FE479A
:10012000F20FE1C08FE4FEA7F50FE1C14FEAFE47F1
:10013000F20FE1C08FE4E007703EF9C00E00E00767
:10014000773EF9DFCE00E007773EF9DFCE00E0072B
:10015000773839DFCE00E007773FB9FC0FFEE007C4
:10016000773FB9FC0FFEFFE7773FB9FC0FFEFFE7D3
:100170007703B800000EFFE7773FB9FC0FFE00E7FA
:10018000773FB9FC0FFE00E7773FB9FC0FFE00E7B1
:10019000773839DFCE0000E7773839DFCE0000E767
:1001A000773839DFCE0000E777003801CE00FFE76F
:1001B0007F103881CFFEFFE77F283941CFFEFFE770
:1001C0007F103881CFFE000000000000000000001A
:1001D000000000000000000000000000000000001F
:1001E00000000000F24E00000000000086D1000078
:1001F00000000000E2510000000000001251000069
:10020000000000001251000000000000E24E00500B
:100210006175736500484947482053434F52455321
:1002200000434C41535349432048494748205343D6
:100230004F524553000101FF030101F7034372656B
:1002400064697473005469746C6573637265656E78
:1002500000446966666963756C747900486967680B
:1002600073636F726500537461727420436C6173C1
:100270007369630053746172742047616D6500395E
:1002800002350200000000240027002A00000000C0
:1002900000250028002B000500893008023802499B
:1002A00078681400000500680138010000446966A0
:1002B000666963756C74793A200020206279205257
:1002C000306430740020204869676853636F72653A
:1002D00020636F6465004D616B657253717569725F
:1002E00072656C004C61647920417765736F6D6550
:1002F0000043432D42592D5341203230313800768E
:10030000322E30204F6374313200740266025C0278
:10031000510245023D0205077F4141417F3E5B4F4F
:100320005B3E3E6B4F6B3E183C783C18183C7E3C65
:10033000181C577D571C1C5E7F5E1C007E43437E4D
:10034000007E73737E007E7F7F7E7F4141417F30E0
:10035000483A060E06297929067F4141417F60709F
:100360003F02042A1C361C2A7F3E1C080000081C81
:100370003E7F14227F22143C3C3C7EFF18423C818D
:100380007E3E6375633E3E616B633E3E636B6B3ED8
:1003900004027F020410207F201008082A1C08088D
:1003A0001C2A0808143E55412263756975631018AC
:1003B0001C1810040C1C0C04000000000000005F5E
:1003C00000000007000700147F147F14042A7F2A0E
:1003D00010231308646236495620500008070300B2
:1003E000001C2241000041221C002A1C3E1C2A083D
:1003F000083E080800E060000008080808080060DF
:1004000060000060100804033E5149453E00427FF1
:10041000400062514949462141494D331814127F29
:100420001027454545393C4A4949304121110907C2
:100430003649494936064949291E00002400000072
:1004400080640000081422410014141414140041A4
:1004500022140802015909063E415D594E7C1211D1
:10046000127C7F494949363E414141227F41412228
:100470001C7F494949417F090909013E41415132E7
:100480007F0808087F00417F41002041413F017FF4
:10049000081422417F404040407F020C027F7F02CF
:1004A00004087F3E4141413E7F090909063E416102
:1004B00041BE7F09192946264949493201017F0178
:1004C000013F4040403F1F2040201F3F4038403FF9
:1004D000631408146303047804036151494543001D
:1004E0007F41410003040810600041417F00040285
:1004F000010204808080808000030708002054549B
:1005000078407F28444438384444442838444428B8
:100510007F3854545418087E09090218A4A49C7802
:100520007F0804047800447D4000006080847D7F63
:100530001010284400417F40007C047804787C0837
:100540000404783844444438FC182424181824241B
:1005500018FC7C080404080854545420043F444404
:10056000203C4040207C1C2040201C3C4020403C43
:1005700044281028444C9090907C4464544C44008F
:100580000836410000007F000000413608001804D2
:1005900008100C7F4141417F0A4E6F205344206375
:1005A000617264206F720A6E6F204C4F4144455255
:1005B0002E4845580A0A153A45786974001D2046A8
:1005C0006C617368696E670A20206C6F6164657284
:1005D0002E2E2E0A0A444F4E2754205455524E2098
:1005E0004F46462100000000002300260029000499
:1005F00004040404040404020202020202030303CA
:1006000003030301020408102040800102040810C3
:100610002001020408102000000008000201000070
:10062000030407000000000000000045006801000E
:1006300000F6E8DBCFC3B8AEA49B928A827B746ECF
:1006400068625C57524E4945413E3A3734312E2C50
:1006500029272523210A0A153A49676E6F7265001A
:100660006D560A0A504C45415345205455524E2070
:100670004F464620004C4F57204241545445525952
:1006800021200003053F213F1208120A100A0E1C08
:100690000E0C1E0C141A14161F161E131E1E1B1EE3
:1006A0001E1F1E3F213F3A2F3A173D173F213F188B
:1006B0001F02040A041F0E04040E1F0A1F0A0E0E56
:1006C0001F04110E2E252E2F2A2E262929021F0245
:1006D000081F08150E04040E150E15151B151B0416
:1006E0000604040C040000000017000300031F0AA6
:1006F0001F16371A1904130A153A000300000E11C9
:10070000110E000A040A040E040030000404040060
:1007100010001804031F111F121F101D15171115AB
:100720001F07041F17151D1F151D01011F1F151F72
:1007300017151F000A00003200040A110A0A0A11E4
:100740000A040115020E11171E051E1F150A0E11AF
:100750000A1F110E1F15111F05010E111D1F041F69
:10076000111F1108100F1F041B1F10101F061F1E42
:10077000040F0E110E1F09060E112E1F051A121559
:1007800009011F011F101F0F180F1F0C1F1B041B37
:10079000031C03191513001F11030418111F000275
:1007A00001022020200001020C121E1F120C0C124C
:1007B000120C121F0C1A14041E05242A1E1F021CE0
:1007C000141D1020201D1F0814111F101E041E1EB2
:1007D000021C0C120C3E0A040C123E1E04021416DB
:1007E0000A020F120E101E0E100E1E081E120C1200
:1007F00026281E322A26041E21001F00211E040165
:1008000002013F213F172B152010204C4F4144453A
:100810005200172B1620131400177361766500160B
:100820006261636B001574797065000A0A0A153AF3
:100830006F6B617920163A6564697400596F752091
:10084000656E74657265640A00536E616B656269FA
:100850007465210057616C6C637261736821004E8E
:100860004557204849474853434F52452100594F67
:1008700055522053434F52453A000047414D4520C1
:100880004F564552210005003801680100002A2218
:1008900011241FBECFEFD8E0DEBFCDBF11E0A0E036
:1008A000B1E0E0E8F9E402C005900D92AC31B10787
:1008B000D9F727E0ACE1B1E001C01D92A639B2073B
:1008C000E1F714E0C8E4D4E004C02197FE010E94DF
:1008D000AC24C734D107C9F70E94DC1D0C94BE2498
:1008E0000C940000089580E090E008958F929F920C
:1008F000AF92BF92CF92DF92EF92FF920F931F932E
:10090000CF93DF9300D0CDB7DEB7109278058093F8
:10091000A603C0907A05D0907B05C094D094E12CBA
:10092000F12C0E94741A4B015C010E94741AA501FB
:1009300094012095309540955095609570958095DF
:1009400090950E9468249B01AC01C701B6010E94EA
:1009500068244B015C0180916105909162056C01F6
:10096000E12CF12C0E94741AC60ED71EE81EF91E47
:10097000C701B601680D791D8A1D9B1D61157105A2
:100980008105910511F00E94BC228091A60340E0F0
:10099000882309F45EC0842F042E000C990B20914B
:1009A0005F0530E0821793074CF4880F991FFC0114
:1009B000E955FC4F108211824F5FEDCF10925F0519
:1009C00088E08093E7051AE01093E80587EE95E04C
:1009D0000E949B0D87E089831A83CE0101960E94B5
:1009E0009B0D86E089831A83CE0101960E949B0DA0
:1009F00035E0F32EF9821A83CE0101960E949B0DF9
:100A000084E089831A83CE0101960E949B0D83E0C6
:100A100089831A83CE0101960E949B0D82E089830F
:100A20001A83CE0101960E949B0D01E009831A836F
:100A3000CE0101960E949B0D19821A83CE01019668
:100A40000E949B0D1093EF05F092F00500937E013C
:100A500044C0842F042E000C990B20915F0530E0D8
:100A6000821793074CF4880F991FFC01E955FC4F3E
:100A7000108211824F5FEDCF10925F058AE0809364
:100A8000E70585E08093E80587EE95E00E949B0DE1
:100A90008FEF80937E0163E876E08EEA95E00E9416
:100AA000AA1B0E94C71780E090E0FC01EF56FC4FA4
:100AB0001082019685319105C1F780E090E0FC013C
:100AC000EB57FC4F108201968C309105C1F785E100
:100AD00080937D018CE080937C0110927B011092C9
:100AE0008F0710928E0790917F018AE0891B809377
:100AF0007A01109279010F900F90DF91CF911F91A1
:100B00000F91FF90EF90DF90CF90BF90AF909F90AC
:100B10008F9008954F925F926F927F928F929F92E3
:100B2000AF92BF92CF92DF92EF92FF920F931F93FB
:100B3000CF93DF93D82F63E876E08EEA95E00E94AA
:100B4000AA1B63E876E08EEA95E00E94AA1BDD23EB
:100B500049F070E8A72E77E0B72EEFE3CE2EE7E05E
:100B6000DE2E08C056E7A52E57E0B52E68E0C62E4B
:100B700067E0D62E83E0482E9EE4792E27E2822E6F
:100B8000912C3BEF632E46E0542E0E949F10882349
:100B9000E1F320E344E560E080E00E941D0ED11106
:100BA00002C084E101C084E08093B7054092B8059B
:100BB000DD2319F061E272E002C065E172E08EEAC5
:100BC00095E00E9455198091B305880F8093B80570
:100BD00075018601C2E05092B705F70180819181CD
:100BE000892B31F46DE28EEA95E00E94CC1805C0A5
:100BF000B8018EEA95E00E94F718F7018191919172
:100C00007F012091B2058031F7E29F0724F0269DF5
:100C1000202D11240FC0883E33E0930724F0219546
:100C2000220F220F07C08436910534F0322F330F84
:100C3000230F2195225B0CC08A30910534F0A4016A
:100C4000421B51099A01220F03C0572D521B252F19
:100C50002093B7052091B305C29F202D1124209326
:100C6000B8050E94700CCF5F055F1F4FC73009F0B9
:100C7000B2CF809175058130A1F485E895E0DF91D0
:100C8000CF911F910F91FF90EF90DF90CF90BF9089
:100C9000AF909F908F907F906F905F904F900C944B
:100CA000A51B80917605813041F3809177058130D5
:100CB00009F06BCFE2CFCF92DF92EF92FF920F93CA
:100CC0001F93CF93DF9366E173E08EEA95E00E9475
:100CD000AA1B8091D005882309F4CAC081E08093C3
:100CE000B6051092B5051092B40510927805809360
:100CF000CE058093CF05CEE0D2E01CE00E949F108D
:100D00008823E1F3FE018491882319F00091B30553
:100D100001C000E06CE770E080E00E94730B6CEEB5
:100D200070E08CE0800F0E94730B1092B705109357
:100D3000B8056EE072E08EEA95E00E94D3188091CB
:100D4000B205982F990F890F81958D5A8093B70519
:100D50008091B305982F990F890F8195835D8093BA
:100D6000B8058091D10584FF03C068E770E002C038
:100D700064E770E08EEA95E00E9455198091B20513
:100D8000982F990F890F81958D5A8093B70580917F
:100D9000B8058F5F8093B80580918A05882319F084
:100DA00060E770E002C06CE670E08EEA95E00E94B9
:100DB00055198091B205982F990F890F81958D5AF9
:100DC0008093B7058091B8058F5F8093B80568E67A
:100DD00070E08EEA95E00E94551980917605813089
:100DE000A1F480918A058F5F60918B0587FD09C012
:100DF000082E000C990B70E06F5F7F4F0E948424D7
:100E0000682F60938A050E94490E80917505813094
:100E1000A9F08091D005482F50E060E070E0C090CC
:100E2000D105D090D205E090D305F090D405C4163A
:100E3000D506E606F706A0F08F3F91F08FEF80937E
:100E4000D00560E085E895E00E94601B1092860561
:100E500085E895E00E94A51B81E08093780508C095
:100E600080917705813009F049CF0E94030F46CF6A
:100E7000DF91CF911F910F91FF90EF90DF90CF9076
:100E80000895FC018081843120F481E091819B30C0
:100E900008F080E00895FC019081DB018C919813AB
:100EA00005C081E0218111969C91291380E008956D
:100EB0002F923F924F925F926F927F928F929F926A
:100EC000AF92BF92CF92DF92EF92FF920F931F9358
:100ED000CF93DF9300D01F92CDB7DEB7FF24FA94F3
:100EE00011E033243A943FE0632E32E0732E0E94E7
:100EF0009F108823E1F380917705813009F4DBC3EB
:100F00000E94B60D882311F081E018C0C0905F05E3
:100F1000D12C01E0602F002E000C770B6C157D05A5
:100F200084F4660F771F69557C4F87EE95E00E9429
:100F30004B07811102C00F5FEDCF80E00E94AF141C
:100F4000BAC3809179018F5F809379018091790193
:100F500060917A01082E000C990B062E000C770B7D
:100F60000E948424EE24E394892B09F0E12C20E3F1
:100F700044E560E080E00E941D0E8091A60381118F
:100F800083C01092CE051092CF05809191038823E3
:100F900079F002E025E040E060E08EEA95E00E9412
:100FA0004A1C25E04FE260E08EEA95E00E944A1C70
:100FB00080918503882379F005E022E040E060E03D
:100FC0008EEA95E00E944A1C22E040E063E58EEA4A
:100FD00095E00E944A1C35E0CC24C394D12CF60144
:100FE000EF56FC4F8081882391F002E025E040E03D
:100FF000632F8EEA95E03B830E944A1C25E04FE276
:101000003B81632F8EEA95E00E944A1C3B818FEF63
:10101000C81AD80A3C5F313511F735E0CC24C394A7
:10102000D12CF601EB57FC4F8081882391F005E02D
:1010300022E0432F60E08EEA95E03B830E944A1C49
:1010400022E03B81432F63E58EEA95E00E944A1C33
:101050003B81AFEFCA1ADA0A3C5F3D3211F71093B9
:10106000CE051092CF0580917E018F3F69F4B2E0EA
:10107000B093B705B093B80560918E0770918F0754
:101080008EEA95E00E94E70D8091720581508E3FB7
:1010900030F08091730581508E3F48F417C08091E5
:1010A000A60381110FC0E2E0FE120CC00DC08091BA
:1010B000740581508E3FB0F48091A603811104C065
:1010C000F11002C080E00BC082E009C08091A6034D
:1010D000811104C0F3E0FF1609F417C281E0809388
:1010E0007E0119C08091710581508E3F08F405C2C0
:1010F0008091760581508E3F08F009C230927E01C2
:1011000080917E01F81639F07092E5056092E40551
:1011100085E18093E605E110F0907E0100917E016B
:10112000EE2009F47CC087EE95E00E944107D82E9E
:101130000E94B60D2091A6030F3F09F470C0011163
:1011400004C09091E80591500BC0013021F49091BA
:10115000E7059F5F0EC0023031F49091E8059F5F74
:101160009093E80508C0033009F059C09091E70555
:1011700091509093E705211129C0D11027C081110A
:1011800025C0013039F48091E7058431FCF03092BC
:10119000E7051CC0033041F48091E7051816B4F050
:1011A00084E18093E70512C0011108C08091E80531
:1011B000181664F08BE08093E80508C0023031F423
:1011C0008091E8058B3014F03092E80580917B0126
:1011D0008111A4C18091780118160CF49FC120914F
:1011E0005F051216A4F4822F022E000C990BDC016D
:1011F000AA0FBB1FA955BC4F880F991FFC01EB55C7
:10120000FC4F808191818D939C932150EACF8091F6
:10121000E7059091E8059093A8038093A703409079
:101220005F0577EA872E73E0972EE8EAAE2EE3E0BB
:10123000BE2EC12CD12C512CC414D5040CF063C08B
:10124000D4010C91000F000F0E5FF5015081550F76
:10125000550F62E0262E250E23E0422D602F8EEAE8
:1012600095E05B830E94271C5B8143E0450F23E0F0
:10127000602F8EEA95E00E94271C5B8144E0450FB9
:1012800023E0602F8EEA95E00E94271CC114D10450
:1012900081F1EFEFEC0DF0E0EE0FFF1FE955FC4F91
:1012A000D4018C919081891BD5019C91218141E0D1
:1012B000480F4330F0F4921B21E0290F2330C8F48B
:1012C000291A081B23E0422D602F8EEA95E00E9428
:1012D000271C41E0420D23E0602F8EEA95E00E943A
:1012E000271C42E0420D23E0602F8EEA95E00E9429
:1012F000271CBFEFCB1ADB0AE2E08E0E911CF2E056
:10130000AF0EB11C99CF80917E018F3F09F443C08D
:10131000EE2009F440C067EE75E08FEE95E00E9484
:101320004B07882369F010937B0120917F01809106
:101330008E0790918F07820F911D27FD9A9533C1DB
:101340008091A603811108C067EE75E08BEE95E0F1
:101350000E944B07811116C18091A603882309F4CE
:10136000F7C08091A603811122C167EE75E089EE76
:1013700095E00E944B0781111DC190E020917B01F7
:10138000211181C181117FC191117DC180917801AD
:10139000833009F478C10091F005000F000F83E05D
:1013A000C82EC00EE090EF05EE0CEE0C93E0D92EA7
:1013B000DE0C24E0B22EB00E4B2D6D2D8EEA95E0A2
:1013C0000E94CF1B0E5F402F6D2D8EEA95E00E948C
:1013D000CF1B34E0A32EAE0C4C2D6A2D8EEA95E087
:1013E0000E94CF1BE394E3944C2D6E2D8EEA95E082
:1013F0000E94CF1B4C2D6A2D8EEA95E00E94CF1BD8
:101400004C2D6E2D8EEA95E00E94CF1B4C2D6A2D3F
:101410008EEA95E00E94CF1B4C2D6E2D8EEA95E052
:101420000E94CF1B4B2D6D2D8EEA95E00E94CF1BA5
:101430004B2D6D2D8EEA95E00E94CF1B402F6D2D18
:101440008EEA95E00E94CF1B402F6D2D8EEA95E02D
:101450000E94CF1B8091A603811149CD8BEE95E0B0
:101460000E944107882379F04091EC05440F440F16
:101470004D5F6091EB05660F660F6E5F23E08EEAAD
:1014800095E00E94271C8DEE95E00E94410788237D
:10149000F1F04091EE05440F440F4D5F6091ED0572
:1014A000660F660F6E5F23E08EEA95E00E94271CB0
:1014B0004091EE05440F440F4E5F6091ED05660FBD
:1014C000660F6D5F23E08EEA95E00E94491D89EE6C
:1014D00095E00E944107882309F409CD6091EA054F
:1014E000660F660F6E5F8091E905880F880F23E015
:1014F00043E08E5F0E941D0EFACC8091A6038111FD
:1015000004C031E0F31609F4E9CD83E0E8CD809121
:10151000750581508E3F08F0FECDF0CD19821A82FC
:10152000CE0101960E949B0D409178018091780137
:10153000082E000C990B21E030E0141614F020E086
:1015400030E0821B930B8093780110927B0147CE91
:1015500067EE75E08DEE95E00E944B07882309F455
:1015600000CF809178018D5F8093780120917F0179
:1015700080918E0790918F0733E02302800D911D9B
:10158000112411C080915F05845080935F05809184
:101590008E0790918F07049790938F0780938E0703
:1015A00090E081E0EBCE90938F0780938E0790E0E0
:1015B00080E0E4CE20917F0180918E0790918F078B
:1015C000820F911D27FD9A9590938F0780938E0728
:1015D00080917D01811118C080917C01882309F4DC
:1015E00068C0813039F580E090E0FC01EB57FC4F9A
:1015F0002081222321F0108310927C015AC0019691
:101600008C30910591F716C08130A1F480917C0156
:10161000811110C080E090E0FC01EF56FC4F20816A
:10162000222321F0108310927D0143C00196853161
:10163000910591F765E170E080E090E00E94A818C4
:10164000062F6CE070E080E090E00E94A818A62FC2
:10165000B0E0AB57BC4F9C91E02FF0E0EF56FC4F51
:101660008081911107C01C9380917C0181508093EF
:101670007C011FC08111DECF108380917D018150DC
:1016800080937D0116C086E380939905809189053A
:1016900080939A051092AA051092A9051092A805A8
:1016A00010939C051093FF0610929D050E94C7178A
:1016B00072CE91E07DCF0F900F900F90DF91CF9180
:1016C0001F910F91FF90EF90DF90CF90BF90AF9060
:1016D0009F908F907F906F905F904F903F902F9052
:1016E00008950E94B2248F929F92AF92BF92CF92A0
:1016F000DF92EF92FF920F931F93CF93DF93FB0143
:1017000024913196C490F090CE05022E000C330B3C
:10171000121613060CF0D7C080330CF0D4C0482F3B
:10172000082E000C550BFA01EC0DF11DC7FCFA95C3
:101730001E161F060CF0C7C06E5F7F4FD9011796AB
:1017400093E0B595A7959A95E1F787FF0BC0C80E72
:10175000A49FC001A59F900DB49F900D1124681BFC
:10176000790B80E04C2D0C2C000C550B480F511DB3
:1017700087FD5A95413351051CF090E3C92EC81AD4
:101780002535310514F024E530E01091BA0518270D
:10179000982F977031E001C0330F9A95EAF785953D
:1017A00085958595F4E58F02C00111248B579E4FD6
:1017B00000E00C2C000CDD08BB24B394402F50E05B
:1017C0004C155D050CF07FC0FB01E490F1E0FF12C9
:1017D00018C0FB01EC0140E8542F5E2119F058813C
:1017E000532B588350E0559547954115510519F4F1
:1017F0003196E49040E821965C2F581B521760F315
:1018000059C0F1101AC0A32EA094FB01EC0140E8CE
:10181000542F5E2119F058815A21588350E0559574
:1018200047954115510519F43196E49040E8219609
:101830005C2F581B521760F33DC043E0F41223C0E5
:10184000932E9094FB01EC0140E8A82E8C2E881A70
:10185000542F5E2141F08126588180FE02C0532B17
:1018600001C05921588350E05595479541155105C0
:1018700019F43196E49040E821965C2F5A195217DA
:1018800028F31B2517C0FB01EC0140E8542F5E2113
:1018900019F058815327588350E0559547954115C5
:1018A000510519F43196E49040E821965C2F581BBD
:1018B000521760F3330F19F48C5A9F4F31E00F5FCA
:1018C0006A0F7B1F7BCFDF91CF911F910F91FF900C
:1018D000EF90DF90CF90BF90AF909F908F90089542
:1018E000CF92DF92EF92FF92CF93DF936C01990F2B
:1018F000EE08FF08F7FE16C06DE28EEA95E00E9442
:10190000CC18EC0144275527BA014C195D096E0922
:101910007F092AE08EEA95E00E940C197C01EC0E0A
:10192000FD1E08C02AE0B701A6018EEA95E00E94DC
:101930000C197C0161E171E08EEA95E00E94F718D4
:101940008E0D9F1DDF91CF91FF90EF90DF90CF9094
:101950000895AF92BF92CF92DF92EF92FF920F93D2
:101960001F93CF93DF93182F062FC1E0D3E08AEFA8
:10197000D82E9EEFE92E842F8470C82E842F82707B
:10198000B82E842F8870A82E4170F42E8C2F880FCB
:101990008F5FE80ECC2081F04D2F400F6C2F610F30
:1019A0008EEA95E00E94CF1B4C2F400F6D2F610FE8
:1019B0008EEA95E00E94CF1BBB2081F0402F4D1B8B
:1019C0006C2F610F8EEA95E00E94CF1B402F4C1BBD
:1019D0006D2F610F8EEA95E00E94CF1BAA2081F047
:1019E0004C2F400F612F6D1B8EEA95E00E94CF1B9C
:1019F0004D2F400F612F6C1B8EEA95E00E94CF1B8C
:101A0000FF2081F0402F4C1B612F6D1B8EEA95E06B
:101A10000E94CF1B402F4D1B612F6C1B8EEA95E05F
:101A20000E94CF1BCD1744F4E7FC04C0D150D394DF
:101A3000D394ED0CCF5FAACFDF91CF911F910F917F
:101A4000FF90EF90DF90CF90BF90AF900895FF92FE
:101A50000F931F93CF93DF9300D0CDB7DEB76BE02A
:101A600070E080E090E00E94A818162F64E170E01A
:101A700080E090E00E94A81869831A8300915F05B6
:101A800010E0F12C6F2D0F2C000C770B60177107F5
:101A900064F4660F771F69557C4FCE0101960E9452
:101AA0004B078111DCCFF394EDCF8FEE95E00E94D0
:101AB000410781111CC08DEE95E00E944107811104
:101AC0001FC08BEE95E00E944107811122C089EE74
:101AD00095E00E944107811125C089819A810F906C
:101AE0000F90DF91CF911F910F91FF9008956FEEAE
:101AF00075E0CE0101960E944B078111B0CFDBCF7C
:101B00006DEE75E0CE0101960E944B078823C9F265
:101B1000A6CF6BEE75E0CE0101960E944B0788239D
:101B2000B1F29DCF69EE75E0CE0101960E944B07A0
:101B3000811195CFD2CFCF93DF93EC010E94410763
:101B4000882389F090915F059C3D68F4E92FF0E0CF
:101B5000EE0FFF1FE955FC4F288139813183208327
:101B60009F5F90935F05DF91CF91089587EE95E099
:101B70000E94410781110BC08091A603811126C0EC
:101B8000A091E70591E09A0F963148F402C080E0F9
:101B90000895E091E80591E09E0F9D3010F081E0FE
:101BA0000895A53140F40A2E000CBB0BAF56BC4F74
:101BB0009C9191110BC0EC3090F70E2E000CFF0B96
:101BC000EB57FC4F908181E0892708950895CF92CB
:101BD000DF92EF92FF920F931F93CF93DF936B01EE
:101BE000770FEE08FF08F7FE1BC0EC016DE20E94C4
:101BF000CC188C0144275527BA014C195D096E0990
:101C00007F092AE0CE010E940C19800F911FDF91FD
:101C1000CF911F910F91FF90EF90DF90CF9008959B
:101C20002AE0B701A601DF91CF911F910F91FF909C
:101C3000EF90DF90CF900C940C190F931F93CF93DC
:101C4000DF93C82F162FD42F022F242F462F682F53
:101C50008EEA95E00E94271C4FEF400F410F2D2F79
:101C60006C2F8EEA95E00E94271C202F412F6C2FAD
:101C70008EEA95E00E94491DD1506D2F6C0F202FE8
:101C8000412F8EEA95E0DF91CF911F910F910C9437
:101C9000491D40E06BE276E085E895E00C94711B0D
:101CA000CF92DF92EF92FF920F931F93CF93DF9328
:101CB000CAE6D5E001E715E0FF24FA9497E0E92EA3
:101CC000E00E62E088810E94C219288130E0F901AB
:101CD000E95EF94F8491F901ED5FF94FC490F90184
:101CE000E151FA4FD490DD2071F081110E94691901
:101CF000ED2DF0E0EE0FFF1FEB51FA4FA591B491DF
:101D0000EC91EC21B1F4F80180818F5F808360E079
:101D100088810E94C21921960F5F1F4FE012D1CF18
:101D2000DF91CF911F910F91FF90EF90DF90CF90B7
:101D30000895F8018081882371F3F8018F3F11F431
:101D40001082E5CFF082E3CFCF93C82FF89460E004
:101D50008091BD050E9492198091BE0518161CF451
:101D600060E00E949219CEBD00000DB407FEFDCFC9
:101D70008EB58091BE0518161CF461E00E94921980
:101D80007894CF9108950F931F93CF938091BA05C4
:101D90008F5F8093BA0505E811E0C0E08C2F806466
:101DA0000E94A40E80E80E94A40E61E08091BD050F
:101DB0000E9492198091BE0518161CF460E00E94E2
:101DC000921980E090E0F801E80FF91F20812EBD04
:101DD00000000DB407FEFDCF2EB5019684359105A8
:101DE00091F78091BE0518161CF461E00E949219CB
:101DF000CF5F0C5A1F4FC63089F680E4CF911F91F8
:101E00000F910C94A40E8EEA95E00E94BE1B6DEB20
:101E100075E08EEA95E00E94D3180E94C30E8CB53F
:101E200083608CBD8DB58E7F8DBD84E191E0EEEF3A
:101E3000FFE309951092B40568E975E08EEA95E034
:101E40000E9455190E94C30E0E94500E8091750584
:101E5000813039F062E370E080E090E00E94991AEE
:101E6000F3CF0895CF93DF93482F50E0EA01C05A93
:101E7000DA4F9DA19923A1F19EA1911131C09EA598
:101E8000FA01EE0FFF1FE959FA4F35A126A1E32F02
:101E9000F22FE90FF11DE90FF11D259134912F3F2C
:101EA0009FEF390711F41DA21BC039AB440F551F1A
:101EB000FA01E659FA4F3327220F331F05A0F6A186
:101EC000E02DE20FF31F65917491811105C040E090
:101ED00085E895E00E94711B29968DA18F5F8DA3E7
:101EE000DF91CF91089570E0DB01AA0FBB1FA05ACC
:101EF000BA4FD4962C91D497D5969C91D597E22F32
:101F0000F92FE80FF11DE80FF11D259134915F962F
:101F100096963C932E939597F90185919491909183
:101F20008905989F802D1124605A7A4FFB01B19644
:101F300085A3F901A591B4914B2F50E0E82FF0E073
:101F40004E175F0720F4F90125913491832FFB018F
:101F5000B296899F802D112485A30895DF92EF9278
:101F6000FF920F931F93CF93DF93C82FD62FE42EAA
:101F7000022F8AEFD82ED40E93E0F92EFC0E2D2DD1
:101F8000462F6F2D8EEA95E00E94271C1D2F100F03
:101F90004FEF410F2D2D6F2D8EEA95E00E94271CEB
:101FA0000650DD5F202F4D2F6C2F8EEA95E00E94AA
:101FB000491DCE0D6FEF6C0F202F4D2F8EEA95E04F
:101FC0000E94491D41E06D2F8F2D0E94A90CC45025
:101FD00042E06D2F8C2F0E94A90C145044E0612F19
:101FE0008C2F0E94A90C48E0612F8F2DDF91CF919B
:101FF0001F910F91FF90EF90DF900C94A90C9F928E
:10200000AF92BF92CF92DF92EF92FF920F931F9306
:10201000CF93DF93F82EE62EB22E03E0020FD0E02E
:10202000C3E08AEFC82E1EEF842F8170982EAA2459
:10203000A394A20E4270D42EDF5F802F8B19180F4D
:102040009920A1F02C2F220F2A0D4E2D4C1B6D2F05
:102050006F0D8EEA95E00E94491D202F4E2D4D1BDD
:102060006C2F6F0D8EEA95E00E94491DDD20A1F0D6
:102070002C2F220F2A0D4E2D4C1B6F2D6D1B8EEA1F
:1020800095E00E94491D202F4E2D4D1B6F2D6C1B7E
:102090008EEA95E00E94491DDC1744F417FD04C048
:1020A000C150C394C3941C0D0E5FC6CFDF91CF9176
:1020B0001F910F91FF90EF90DF90CF90BF90AF9066
:1020C0009F90089580917C0590917D05892BB1F1B9
:1020D000809184058F7169F584E10E945D1ABC01CD
:1020E000990F880B990B0E946F2326EE3FE34EEC6D
:1020F00050E40E94D3230E943E239B0170937B05F2
:1021000060937A05672B91F084E080937905ECE782
:10211000F5E080E0419151912417350718F4809340
:10212000790508958F5F8430A9F703C08FEF8093FE
:102130007905809184058F5F8093840508954F927F
:102140005F926F927F928F929F92AF92BF92CF9247
:10215000DF92EF92FF920F931F93CF93DF9300D004
:1021600000D01F92CDB7DEB74091E0055091E10558
:102170006091E2057091E3052FB7F8948091040710
:1021800090910507A0910607B09107072FBF481B44
:10219000590B6A0B7B0B8091DF0590E0A0E0B0E06B
:1021A0000091DB051091DC052091DD053091DE0505
:1021B00084179507A607B70730F401151105210507
:1021C000310509F0EAC2012B022B032B09F0E3C20F
:1021D0008091770581508E3F08F58091760581309A
:1021E00011F580918A058F5F60918B0587FD09C08D
:1021F000082E000C990B70E06F5F7F4F0E948424C3
:10220000682F60938A0582E198E09093E5058093BA
:10221000E40588E48093E6050E94490E80917705E5
:1022200081508E3F70F480917505813009F061C353
:1022300085E098E09093E5058093E40588E4809339
:10224000E60580E00E94320F80918605882309F41C
:10225000ADC080919A058111A9C08091920590919D
:102260009305E0919705F0919805EE0FFF1FE80F99
:10227000F91F459154914115510501F5209196059D
:10228000222331F01092980510929705FC0114C09A
:102290001092860580918505882341F080E00E9498
:1022A000320FE0919705F09198052FC060E085E826
:1022B00095E00E94601B7AC0459154919A01369531
:1022C00027953695279540FF51C0CA01B6E09695EF
:1022D0008795BA95E1F78F71952F96959695969576
:1022E00090512F70223071F1F8F4211117C08B300A
:1022F00008F08AE080939B05E0919705F09198059E
:102300003196F0939805E0939705EE0FFF1F8091AB
:10231000920590919305E80FF91FCECF213061F718
:1023200060E00E94730FE8CF2330B1F0243021F732
:1023300020918905829F802D11248093A20590937E
:10234000A305DACF20918905829F802D11248093E7
:102350009E0590939F05D0CF20918905829F802D67
:1023600011248093A0059093A105C6CF2F732093CD
:10237000990580918905859F802D112480939A0568
:102380001092AA051092A9051092A80581E08093E9
:102390009C058093FF0610929D0580919705909172
:1023A00098050196909398058093970580919C05D8
:1023B000882309F4F3C080919A05811106C060E07A
:1023C00085E895E00E94601BE9C0815080939A05E2
:1023D0008091AA05811148C02091A8053091A905D6
:1023E0002F5F3F4FC901880F991FE091A405F0911D
:1023F000A505E80FF91F65917491862F877080936A
:10240000AB05AB0163E0569547956A95E1F7CA01C4
:1024100096958795972F969596959093AC058F7383
:1024200090918905899F802D11248093AA05417080
:10243000409303073093A9052093A8058091A60532
:1024400090E02817390780F02091A705222339F062
:10245000821B91099093A9058093A80505C060E0AF
:1024600085E895E00E94601B8091AA0581508093C9
:10247000AA0580919D0521E0280F20939D0540919C
:1024800099053091AC05340F80919105380F309348
:1024900087056091A005662371F070E0822F022EFF
:1024A000000C990B0E9484248091A105869F300D19
:1024B0001124309387058091870590E0849664E22B
:1024C00070E00E9484248093870530919B053093AF
:1024D000880560919E05662381F0062E000C770B1F
:1024E000822F022E000C990B0E94842480919F055C
:1024F000869F300D1124309388056091A2056623D4
:10250000A1F0822F220F990B70E00E948424CB014E
:1025100062E070E00E9484242091A30590918805D8
:10252000289F900D112490938805809188054F3342
:1025300041F08A300CF089E087FD80E080938805C7
:1025400002C010928805F894E0918705F0E0EF5CF6
:10255000F94FE491E0930207309188052091AD0591
:102560003203900111244091AB054203C001439F07
:10257000900D112400908A0502C0880F991F0A94BB
:10258000E2F797FF02C081589F4F880F892F881F5D
:10259000990B809301078093000778948091E6055A
:1025A000882309F456C08C3020F49CE0E92EE81A08
:1025B00001C0E12CFF24F394F092B6051092CE05F1
:1025C0001092CF053091B3051DE2D12ED31ADE0C47
:1025D00003E0030F2EE44D2D63E08EEA95E03D838A
:1025E0000E944A1C3D810CEF030F33E0D30E202FD5
:1025F00041E06D2D80E50E94FF0F202F42E06D2D00
:1026000083E00E94FF0FF092CE05F092CF058091FB
:10261000B30523E0280F612F681B6E0D44E580E0B1
:102620000E94AE0F84E08093B7058091B305E81A4D
:102630008E2D815D8093B8056091E4057091E5056C
:102640008EEA95E00E94D3188091E6058150809330
:10265000E60580917C0590917D05892B09F47DC06C
:1026600011E01093CE051092CF059091B20585E54B
:10267000891B8093B7051092B80560917905613088
:1026800009F44CC030F080917805653008F05EC0E8
:1026900059C060E085E895E00E94601B10928605B5
:1026A0001093B60563E876E08EEA95E00E94AA1BD7
:1026B00010927D0510927C051092B40518EA0E94D4
:1026C0009F108823E1F365E776E08EEA95E00E94AB
:1026D000D31840917A0550917B0560E070E02AE0C4
:1026E0008EEA95E00E940C1960E676E08EEA95E0AD
:1026F0000E94D318612F62956F7070E08EEA95E0AA
:102700000E94E70D65E576E08EEA95E00E94D31819
:1027100080917505813009F0F2C01FC08091D1050C
:102720009091D205A091D305B091D4058F709927CF
:10273000AA27BB270897A105B10510F467E009C0D7
:1027400068E707C0882349F06B5F03C0882329F03E
:102750006FE28EEA95E00E94CC180E94C30E809131
:10276000B405811104C08EEA95E00E94BE1B0E9450
:10277000741A6093DB057093DC058093DD059093FC
:10278000DE052091D7053091D805621B730B70933D
:10279000D6056093D50580E0CCC02FB7F894809122
:1027A000040790910507A0910607B09107072FBF76
:1027B0002091DF05820F911DA11DB11D8093E005C1
:1027C0009093E105A093E205B093E3058091D105D4
:1027D0009091D205A091D305B091D4050196A11D89
:1027E000B11D8093D1059093D205A093D305B093EA
:1027F000D4051092DB051092DC051092DD051092D5
:10280000DE050E94741A6093D7057093D8058093F3
:10281000D9059093DA0580916105909162052FE0CA
:10282000289F8001299F100D112485E10E945D1AC7
:10283000800F911F24E0969587952A95E1F7909354
:1028400062058093610520916005222309F44BC045
:1028500060916405262F30E040E050E029833A8300
:102860004B835C83C0906505D12CE12CF12C409109
:102870006805509169054A01A12CB12C209166058B
:10288000309167052901612C712C8217930728F07C
:102890009C014817590708F49A01C901A0E0B0E06B
:1028A0009C01AD01241935094609570969817A81CE
:1028B0008B819C816C197D098E099F090E94682477
:1028C000A501940124193509460957090E94DB2204
:1028D000C20ED31EE41EF51EC09263056C2D70E07F
:1028E00085E00E94FE190E94500E0E94621081E055
:1028F00020C0893209F0A5CC0E94030FA2CC115050
:1029000009F0DDCE60E070E085E00E94FE1983B73B
:10291000817F846083BF83B7816083BF83B7816019
:1029200083BF889583B78E7F83BF83B78E7F83BF36
:10293000C6CE0F900F900F900F900F90DF91CF9118
:102940001F910F91FF90EF90DF90CF90BF90AF90CD
:102950009F908F907F906F905F904F9008952F92EF
:102960003F924F925F926F927F928F929F92AF921F
:10297000BF92CF92DF92EF92FF920F931F93CF936C
:10298000DF93CDB7DEB765970FB6F894DEBF0FBE05
:10299000CDBF1092990590918905292F220F920F92
:1029A00090939A051092AA051092A9051092A80575
:1029B00091E090939C059093FF0610929D058823CB
:1029C00019F084E598E002C089E498E09093E50569
:1029D0008093E40585E18093E6058091A603882332
:1029E00059F020918E0730918F0780918C0790913C
:1029F0008D07821793076CF18091A60381110BC09C
:102A000020918E0730918F0780918A0790918B07D4
:102A100082179307F4F00E946C1D8091A6036596BF
:102A20000FB6F894DEBF0FBECDBFDF91CF911F91DF
:102A30000F91FF90EF90DF90CF90BF90AF909F905D
:102A40008F907F906F905F904F903F902F900C945D
:102A50008A050E946C1D8091A6038111E7C11F8623
:102A6000188AF6E72F2EF7E03F2EA8E0AA2EA7E05F
:102A7000BA2E8AE897E09C878B8745019CE2890EF5
:102A8000911CE0E8F7E7859194918130904C89F0B2
:102A90001092B405F50116AAF0E3FE8724E52D8710
:102AA00062E0F62EE12C10E07AEF572EE0E34E2E96
:102AB00068C0D40180E090E0FC01E557F848E4915B
:102AC000ED9301968A309105B9F7E2CF80917405B4
:102AD0008F3F09F05BC0809172058F3F09F05BC0AA
:102AE000809173058F3F09F05BC0809171058F3F26
:102AF00009F05BC080E1E8125DC0E12C98E0F912BA
:102B00005EC0F12C9091B3058091B20580958E9DA9
:102B1000802D1124895DED85CE2EEE0FDD08C80EC7
:102B2000D11C87FDDA94D7FE03C0FFEFCF1ADF0A6E
:102B3000D594C794C98ACD8684E1891B90959F9DC1
:102B4000800D11242E85622F220F770B680F711DC7
:102B500087FD7A9577FF02C06F5F7F4F3B017594C9
:102B600067946A8A6E8680917505813009F03FC04E
:102B70001A30ACF58E2D90E1F99E800D1124811153
:102B800023C00E949F108823E1F3A0CF837081307F
:102B900009F0A1CF5BC18370813009F0A1CF5AC188
:102BA0008370813009F0A1CF59C18370813009F061
:102BB000A1CF58C1E7FEA2CF5FE0E52E9FCFF7FE81
:102BC000A1CF47E0F42E9ECF8A30D9F28D30C9F2E2
:102BD000F401E10FF11D17FDFA95808311821F5F4B
:102BE00085E895E00E94A51B1C300CF01BE080914D
:102BF0007605813081F4115040E065EA72E085E8A5
:102C000095E00E94711B17FD31C1F401E10FF11D28
:102C100017FDFA95108280917705813069F428C1FB
:102C200080917605813009F027C140E065EA72E0C5
:102C300085E895E00E94711B70E050E030E0232FA2
:102C4000270F8091B305452F589F400D1124EA8925
:102C50004E0F8091B205632F389F600D1124F989C2
:102C60006F0F01E08EEA95E03B8B5C8B7D8B0E94C1
:102C7000731C3B893F5F5C897D89303101F75F5F61
:102C8000705F5830D9F68091B2052C2D859D200DAE
:102C90001124822F82508093B7058091B3058F5FF6
:102CA000860D8093B80565E278E08EEA95E00E9493
:102CB000D3188091B2059C2D859D900D1124892FEC
:102CC00082508093B7058091B305880F8E5F860D83
:102CD0008093B8056FE178E08EEA95E00E94D31802
:102CE0008091B205EC2D859DE00D11248E2F825030
:102CF0008093B7058091B30590E00196982F990FC6
:102D0000890F860D8093B80569E178E08EEA95E039
:102D10000E94D3181092CE051092CF058091B30572
:102D20004F2DF89E400D11244250460D8091B20562
:102D30006E2DE89E600D112461506C0D27E08EEA27
:102D400095E00E94271CDD24D394D092CE05D0922A
:102D5000CF053091B3054091B205E42FF0E025E0B6
:102D6000230F4E5FCF01019762E070E00E94842440
:102D7000480F6F2DF39E600D11246350660D8E2D4C
:102D8000EE9E800D112482508C0D0E94AE0F80911A
:102D9000B3054EE2481B24E560E08EEA95E00E9410
:102DA000271C1092CE051092CF058091B30501E04B
:102DB000080F4FE2481B24E560E08EEA95E00E9490
:102DC0004A1C1092B7058091B305F42DF81BF093BF
:102DD000B805D092CE05D092CF05B4018EEA95E029
:102DE0000E94F7188091D1059091D205A091D3054A
:102DF000B091D40587709927AA27BB270497A1050E
:102E0000B10508F0BECE1A300CF0BBCE8091B305F0
:102E1000442D481B6091B205169F602D112401E0DE
:102E20002FE58EEA95E00E94731CABCE81E48F877C
:102E3000188A80E8282E87E0382E9FE3A92E97E095
:102E4000B92EECE8F7E0FC87EB8717CEF3940E94ED
:102E5000490E41CEFA940E94490E42CEE3940E945C
:102E6000490E43CEEA940E94490E44CE10E0D3CEE0
:102E700085E895E00E94A51B0E949F108823E1F33E
:102E80006CE378E08EEA95E00E945519B4018EEA71
:102E900095E00E94F7186BE278E08EEA95E00E94D8
:102EA000551980917505813009F0BACE85E895E015
:102EB0000E94A51B80918E0790918F07F101918749
:102EC00080878101085F1F4F7501F1E2EF0EF11C51
:102ED0006101F801929082908F0162807380861464
:102EE0009704F4F4B701CE0101960E94B72427019C
:102EF000FBE04F0E511CB201C7010E94B724BE0176
:102F00006F5F7F4FC2010E94B724F8017182608217
:102F100093828282FBE0EF1AF10802151305C9F6CD
:102F2000F10180859185EB85FC85918380830F85F8
:102F300018894801FCE38F0E911CE12CF12CF5015E
:102F4000EE0DFF1D6081C701800F911F0E94CD22F1
:102F50002FEFE21AF20A8AE0E816F10481F7F6018F
:102F60006081C8010A960E94CD22F6016181F2E0DB
:102F7000CF0ED11CC8010B960E94CD22045F1F4FBB
:102F80002BE0A20EB11C08151905B9F646CDCF935A
:102F9000CEEFC093EF050E94270D9093F00580932C
:102FA000EF058091A603811138C0C093EB05C09353
:102FB000ED05C093E90580915F05883070F166E208
:102FC00070E080E090E00E94A8188EEF860F8330BA
:102FD00010F0613239F40E94270D9093EC05809334
:102FE000EB051BC0673131F0862F8D7F853011F0E6
:102FF0006D3139F40E94270D9093EE058093ED0515
:103000000CC06D3021F0653211F0613031F40E9456
:10301000270D9093EA058093E905CF9108958F924B
:103020009F92AF92BF92CF92DF92EF92FF920F9357
:103030001F93CF93DF9381110BC088E097E046E7A1
:1030400057E030E020E07AE8C72E77E0D72E0AC0BC
:103050008FE397E040E857E031E420E06CE8C62ECB
:1030600067E0D62E7A01C32FD22F4C015E012CE3EC
:10307000A20EB11C00E010E0C8018C0F9D1F0E9441
:10308000C522F401E00FF11F80830F5F1F4F0A304C
:10309000110591F7CE010A960E94C522082F10E073
:1030A000F70111830083CE010B960E94C52290E0A8
:1030B000982F8827800F911F8F3FFFEF9F0711F4F4
:1030C00080E090E0F701819391937F01F601918375
:1030D00080832C96FBE08F0E911CCA15DB0551F600
:1030E000DF91CF911F910F91FF90EF90DF90CF90E4
:1030F000BF90AF909F908F900895CF92DF92EF9204
:10310000FF920F931F93CF93DF936C017A018B0192
:10311000C0E0D0E0CE15DF0589F0D8016D918D01BA
:10312000D601ED91FC910190F081E02DC601099549
:10313000892B11F47E0102C02196ECCFC701DF91EB
:10314000CF911F910F91FF90EF90DF90CF90089556
:10315000CF93DF9300D000D0CDB7DEB761157105F6
:103160008105910579F09B01AC0169833A834B831A
:103170005C830E94B72229813A814B815C810E9445
:10318000DB2203C060E070E0CB010F900F900F9046
:103190000F90DF91CF910895DC01ED91FC910190AA
:1031A000F081E02D0994EF92FF920F931F93CF933C
:1031B000DF938C017B01C0E0D0E0F701EC0FFD1F35
:1031C0006491662361F0D801ED91FC910190F0814A
:1031D000E02DC8010995892B11F02196EECFCE0183
:1031E000DF91CF911F910F91FF90EF90089561159E
:1031F000710579F0FB0101900020E9F73197AF01EB
:10320000461B570BDC01ED91FC910280F381E02D10
:10321000099480E090E008954F925F926F927F92C0
:10322000EF92FF920F931F93CF93DF93CDB7DEB74B
:10323000A1970FB6F894DEBF0FBECDBF7C01FA0197
:10324000CB0119A2223008F42AE08E010F5D1F4F36
:10325000422E512C612C712CBF01A30192010E94BE
:103260000D23F901CA01015011096A3014F4605D9F
:1032700001C0695CD8016C93232B242B252B61F7AB
:10328000B801C7010E94F718A1960FB6F894DEBFE7
:103290000FBECDBFDF91CF911F910F91FF90EF90A7
:1032A0007F906F905F904F9008950F931F93CF93EF
:1032B000DF93EC010E94D3188C0161E171E0CE0133
:1032C0000E94F718800F911FDF91CF911F910F91EE
:1032D0000895833081F028F4813099F08230A1F094
:1032E00008958730A9F08830B9F08430D1F4809106
:1032F00080008F7D03C0809180008F778093800055
:10330000089584B58F7702C084B58F7D84BD0895FC
:103310008091B0008F7703C08091B0008F7D809343
:10332000B00008951F93CF93DF93282F30E0F90169
:10333000E95EF94F8491F901ED5FF94FD491F901FC
:10334000E151FA4FC491CC23C9F0162F81110E948C
:103350006919EC2FF0E0EE0FFF1FE357FD4FA59129
:10336000B4918FB7F894111105C09C91ED2FE095A1
:10337000E92302C0EC91ED2BEC938FBFDF91CF914D
:103380001F910895CF93DF9390E0FC01ED5FF94F1B
:103390002491FC01E151FA4F8491882361F190E07E
:1033A000880F991FFC01ED57FD4FC591D491FC0189
:1033B000E357FD4FA591B491611109C09FB7F894EF
:1033C0008881209582238883EC912E230BC0623064
:1033D00061F49FB7F8943881822F80958323888386
:1033E000EC912E2B2C939FBF06C08FB7F894E881E9
:1033F0002E2B28838FBFDF91CF9108951F93CF93FA
:10340000DF93182FEB0161E00E94C219209711F49D
:1034100060E004C0CF3FD10539F461E0812FDF9136
:10342000CF911F910C949219E12FF0E0E95EF94FD2
:10343000E491E330F9F048F4E130B9F0E230A1F57D
:1034400084B5806284BDC8BD34C0E730E9F0E8309F
:1034500019F1E43049F5809180008062809380000A
:10346000D0938B00C0938A0024C084B5806884BD4B
:10347000C7BD1FC080918000806880938000D0937A
:103480008900C093880015C08091B0008068809347
:10349000B000C093B3000DC08091B00080628093F3
:1034A000B000C093B40005C0C038D1050CF0B5CF52
:1034B000AFCFDF91CF911F9108958E3008F08E50DD
:1034C0008770806480937C0080917A008064809310
:1034D0007A0080917A0086FDFCCF8091780020915F
:1034E000790090E0922B08953FB7F894809192076D
:1034F00090919307A0919407B091950726B5A89B4A
:1035000005C02F3F19F00196A11DB11D3FBFBA2F75
:10351000A92F982F8827820F911DA11DB11DBC01D5
:10352000CD0142E0660F771F881F991F4A95D1F79A
:1035300008958F929F92AF92BF92CF92DF92EF92B7
:10354000FF926B017C010E94741A4B015C01C11453
:10355000D104E104F104F1F00E94741ADC01CB0102
:1035600088199909AA09BB09883E9340A105B105AC
:1035700070F321E0C21AD108E108F10888EE880E44
:1035800083E0981EA11CB11CC114D104E104F10414
:1035900019F7DDCFFF90EF90DF90CF90BF90AF9005
:1035A0009F908F9008951F920F920FB60F92112443
:1035B0002F933F938F939F93AF93BF938091040773
:1035C00090910507A0910607B091070730919107E8
:1035D00023E0230F2D3720F40196A11DB11D05C056
:1035E00026E8230F0296A11DB11D20939107809319
:1035F000040790930507A0930607B09307078091EF
:10360000920790919307A0919407B0919507019626
:10361000A11DB11D8093920790939307A0939407E7
:10362000B0939507BF91AF919F918F913F912F914B
:103630000F900FBE0F901F9018951F920F920FB60C
:103640000F9211242F936F937F938F939F93609189
:103650000107662359F1809190078F5F809390074F
:1036600090910207891710F12091FF0681E0282729
:103670002093FF061092900780910307882369F03A
:103680008091000193E4899F802D1124895B8093B0
:1036900000010E94782490930007222329F0809152
:1036A00000078093B40002C080E0FBCF9F918F9110
:1036B0007F916F912F910F900FBE0F901F901895D3
:1036C000FC0161110DC0178A158A14A213A2108E75
:1036D00010920007109201071092FF061092B4009A
:1036E0000895EF92FF920F931F93CF93DF931F9252
:1036F000CDB7DEB77C018B01411105C060E0498385
:103700000E94601B498150E0FA01EE0FFF1FEE0D91
:10371000FF1D16870587DA011996AA0FBB1FAE0D8C
:10372000BF1D1D921C92F701E40FF51F81E08183FC
:1037300089E0868B118E138E158E0F90DF91CF91BD
:103740001F910F91FF90EF90089540E066E878E0B8
:103750000C94711BDC01FB0184918F5F14968C9398
:1037600014973196E491EF5F1596EC9315976E5F81
:103770007F4F5F967C936E935E97089528EF31E0BC
:10378000E5E8F1E0DF01A9011D9241505040E1F769
:10379000DC0119961C9219971A961C920895FC0147
:1037A000643508F053C0403308F050C090A1742F26
:1037B000759575957595262F062E000C330B542F95
:1037C00057709230A1F4F901EB57FE4F84E578026F
:1037D000E00DF11D1124808190E0052E02C0959529
:1037E00087950A94E2F78095982F91700AC09330DC
:1037F00041F484858170462740954170841303C04D
:1038000014C0911112C084E57802200D311D1124DD
:10381000F901EB57FE4F81E090E001C0880F5A9507
:10382000EAF780959081892310C084E57802200D05
:10383000311D1124F901EB57FE4F81E090E001C0EA
:10384000880F5A95EAF79081892B80830895DF923B
:10385000EF92FF920F931F93CF93DF931F92CDB7F9
:10386000DEB78C01D62EF42EE12CE21654F46E2D28
:103870006D0D4F2DC80129830E94CF1BE394298130
:10388000F4CF0F90DF91CF911F910F91FF90EF90A8
:10389000DF900895DF92EF92FF920F931F93CF93E3
:1038A000DF937C01D62FD22EC42F002E000C110BDB
:1038B000040F111D47FD1A954C2F0C2E000C550BB3
:1038C0004017510744F42D2D4C2F6D2FC7010E9436
:1038D000271CCF5FF1CFDF91CF911F910F91FF9008
:1038E000EF90DF9008956F927F928F929F92AF92A8
:1038F000BF92CF92DF92EF92FF920F931F93CF93DD
:10390000DF93EC0188A064350CF080C040330CF0EC
:103910007DC0EC81F0E031970E9FC0010F9F900DAC
:103920001124860F911D67FD9A95181619060CF043
:103930006DC0ED81E09FF0011124E40FF11D47FD02
:10394000FA951E161F060CF061C0102FE42EF62EFD
:10395000962EB62EC22ED12CEB2DEF190E2E000C6A
:10396000FF0B8C8190E0E817F9070CF04EC001972F
:10397000E817F90779F0C89E9001C99E300DD89ECE
:10398000300D1124E20FF31F8E8D9F8DE80FF91F6C
:10399000749001C0712C6E2CAE2C2A2D2E19022E83
:1039A000000C330B8D8190E0281739075CF570FE11
:1039B00010C0113031F44A2D6B2DCE010E94CF1B67
:1039C0001DC0012F212F462D692DCE010E944A1CBA
:1039D00015C089A198A1891789F088A3113031F405
:1039E0004A2D6B2DCE010E94CF1B07C0012F212F26
:1039F000462D692DCE010E944A1C88A27694A3947C
:103A0000610ECBCFB394910EA7CF88A2DF91CF9157
:103A10001F910F91FF90EF90DF90CF90BF90AF90EC
:103A20009F908F907F906F9008950F93CF93DF9327
:103A3000EC016A3019F42D8198851FC06D3019F1A1
:103A4000262F08854A8569850E94731C28853C813C
:103A50008985329F800D112489879F81992399F050
:103A6000082E000C990B44E550E0239F40195109A2
:103A70001124481759073CF49D818A85299F800DA0
:103A800011248A87198681E090E0DF91CF910F9110
:103A90000895DF92EF92FF920F931F93CF93DF93DE
:103AA0001F92CDB7DEB78C01D62EF42EE12CE21694
:103AB00054F44E2D4F0D6D2DC80129830E94CF1B4C
:103AC000E3942981F4CF0F90DF91CF911F910F9153
:103AD000FF90EF90DF9008950F931F93CF93DF93A4
:103AE0008EEA95E00E94BE1B66E173E08EEA95E0E7
:103AF0000E94AA1BC3E0DEE01CE00EE10E949F10C2
:103B00008823E1F3C093B805D093B7056BE778E05D
:103B10008EEA95E00E9455196AE778E08EEA95E012
:103B20000E9455191093B7056EE678E08EEA95E08D
:103B30000E9455190093B70580918E0790918F07C9
:103B40000E94700C1092B7058091A603882359F04B
:103B500020918E0730918F0780918C0790918D076F
:103B600082179307A4F08091A60381110BC02091C6
:103B70008E0730918F0780918A0790918B0782176B
:103B800093072CF080917505813041F410C06FE5EA
:103B900078E08EEA95E00E945519F4CF8091760581
:103BA000813029F080917705813009F0A7CFDF912E
:103BB000CF911F910F910895789484B5826084BD50
:103BC00084B5816084BD85B5826085BD85B5816021
:103BD00085BD80916E00816080936E00109281009F
:103BE000809181008260809381008091810081605A
:103BF000809381008091800081608093800080911B
:103C0000B10084608093B1008091B00081608093A6
:103C1000B00080917A00846080937A0080917A006D
:103C2000826080937A0080917A00816080937A002C
:103C300080917A00806880937A001092C10082E3BC
:103C40008093DF0581E090E0A0E0B0E08093DB05A9
:103C50009093DC05A093DD05B093DE058FEF809394
:103C6000D005E0E8F7E7259134912130304C09F098
:103C700049C0E6E9F7E7E491E093B905E7E9F7E73A
:103C8000E491E0936405E8E9F7E7E491E0936505E2
:103C9000E9E9F7E78591949190936705809366052C
:103CA000EBE9F7E785919491909369058093680516
:103CB00087E080938B05EEE9F7E7E491E0938A05CE
:103CC000EFE9F7E7E491E093D005E0EAF7E78591C3
:103CD000949190937D0580937C05E2EAF7E78591C6
:103CE000949190937F0580937E05E4EAF7E78591B0
:103CF00094919093810580938005E6EAF7E785919A
:103D000094912CC09CE39093B90510926405809324
:103D1000650580E293E0909367058093660584EDE6
:103D200093E0909369058093680587E080938B0505
:103D300080938A058CEA9DE090937D0580937C05B5
:103D40008EED9DE090937F0580937E0584E79EE055
:103D500090938105809380058CE39FE09093830589
:103D600080938205C1E0C09360056FEF70E085E04D
:103D70000E94FE1988E080936A0589E080936B05B4
:103D800087E080936C0586E080936D05D4E0D09346
:103D90006E0582E080936F0581E1809370050E943B
:103DA000500E8CE39FE090937B0580937A05D0932F
:103DB0007905C09384058BE08093BC058DE08093EA
:103DC000BB0580E18093BD058EE08093BF058FE049
:103DD0008093BE05C093B605C093CE051092CF0563
:103DE000C093B50563E876E08EEA95E00E94AA1BD1
:103DF000CFB7F89480918001811127C0E9EFF5E0F9
:103E00008491EDE0F6E09491E82FF0E0EE0FFF1FD3
:103E1000ED57FD4FA591B491EC91E92321F461E0B8
:103E20008AE00E94921961E08AE00E94C2198CB572
:103E300080618CBD8CB580648CBD61E08DE00E949A
:103E4000C21961E08BE00E94C219809180018F5FEE
:103E500080938001CFBF8CB58F7D8CBD8CB58C7F5E
:103E600081608CBD8DB581608DBD8CB58C608CBD45
:103E700061E08091BC050E94C21961E08091BB05A0
:103E80000E94C21961E08091BD050E94C219809113
:103E9000BF0518161CF461E00E94C2198091BE058E
:103EA00018161CF461E00E94C2198091BF05181613
:103EB00074F460E00E9492196AE070E080E090E0A3
:103EC0000E94991A61E08091BF050E949219809129
:103ED000BB05082E000C990BFC01E151FA4FE4914F
:103EE000F0E0EE0FFF1FE357FD4F25913491309323
:103EF000C3052093C205FC01ED5FF94FE491E09307
:103F0000C9058091BC05082E000C990BFC01E151FC
:103F1000FA4FE491F0E0EE0FFF1FE357FD4F2591BC
:103F200034913093C1052093C005FC01ED5FF94F3A
:103F3000E491E093C8058091BE05082E000C990B12
:103F4000FC01E151FA4FE491F0E0EE0FFF1FE3575F
:103F5000FD4F259134913093C5052093C405FC0194
:103F6000ED5FF94FE491E093CA058091BD05082EFD
:103F7000000C990BFC01E151FA4FE491F0E0EE0FD7
:103F8000FF1FE357FD4F259134913093C7052093D0
:103F9000C605FC01ED5FF94FE491E093CB0581E2AA
:103FA0000E94A40E84E10E94A40E8091B90587FFAF
:103FB00003C08FE78093B9058091B90580680E949E
:103FC000A40E80E20E94A40E8CE00E94A40E0E9427
:103FD000C30E81E08093890584E08093AD058FE76F
:103FE00092E0909395058093940560E080E00E94B4
:103FF000730F61E070E083E00E94FE198091B100D0
:10400000887F81608093B100F894109280001092B4
:104010008100109285001092840088E191E09093D5
:10402000890080938800809181008860809381005E
:104030008091810081608093810080916F00826017
:1040400080936F0078940E94621080917605813091
:1040500019F410928A050BC0809179058823C9F361
:1040600040E067E972E085E895E00E94711B81E01D
:1040700080937F01109278050E945B0680E00E9489
:104080000F1881E00E940F18109284011092830192
:1040900010928201109281012DE2322E30E0832EA7
:1040A00030E0932E0E949F108823D9F166E173E0DF
:1040B0008EEA95E00E94AA1B1092B405DD24DA94E2
:1040C000412CC0E090E3292ED0E0CC24C3940E9480
:1040D0009F108823E1F320917505022D220C110B0E
:1040E000213009F48BC180917605813009F486C1B5
:1040F00080917705813009F494C14420C9F0C8014A
:104100008C1B9109C7FD939502978CF58D2D0D2C75
:10411000000C990BD1108BC080E00E9476040E94A5
:1041200058078114910409F4BDCF0E940000BACF52
:10413000809174058F3F21F08370813009F4E4C0D1
:10414000809172058F3F21F08370813009F4E0C0C7
:10415000D63021F0D7FF03C0D5E001C0D0E0809178
:10416000B305C4E0C80F8D9FC019112402C04424B8
:1041700043940C0F111DC7FD1A9517FF02C00F5F66
:104180001F4F7801F594E7945E2C2E2C1092B70502
:10419000E092B805C092B6051092B5050AE013E0AA
:1041A000A12CB12C6D2E0D2E000C7708A614B7048F
:1041B00059F483E08093B7058091B305952DD89F7E
:1041C000900D11249093B805F801659174918EEAD1
:1041D00095E00E9455198FEFA81AB80A0E5F1F4F7D
:1041E00096E0A916B10411F71092CE051092CF05F2
:1041F0008091B3054E2DD89F400D1124415024E5E8
:1042000060E08EEA95E00E94271CC092CE05C09225
:10421000CF058091B30523E0280F6E2DD89F600D48
:104220001124625044E580E00E94AE0F50CF8130EF
:10423000910511F481E071CF8230910539F481E06C
:104240000E948A0580E00E948A056BCF0397A1F443
:104250008EEA95E00E94BE1B66E173E08EEA95E06F
:104260000E94AA1B0E949F108823E1F3809177058A
:10427000813009F051C055CF95E0D91619F00E9450
:104280005B064FCF8EEA95E00E94BE1B66E173E0AD
:104290008EEA95E00E94AA1B0E949F108823E1F3FA
:1042A00063E876E08EEA95E00E94AA1B6FEF72E069
:1042B0008EEA95E00E94551961EF72E08EEA95E072
:1042C0000E94551964EE72E08EEA95E00E9455193D
:1042D00066ED72E08EEA95E00E94551965EC72E099
:1042E0008EEA95E00E9455196AEB72E08EEA95E03D
:1042F0000E94551980917505813009F074C085E8D8
:1043000095E00E94A51B0DCFDF5F0E94490E18CFDC
:10431000D1500E94490E1CCF80917505813009F45F
:1043200000CF80917F01823064F0809171058F3FD2
:1043300011F080FD89C0809174058F3F11F080FDE0
:1043400083C080917F0189308CF4809173058F3F09
:1043500011F080FD06C0809172058F3F39F080FF1B
:1043600005C080917F018F5F80937F016DEA72E0CD
:104370008EEA95E00E94D31860917F01062E000C12
:10438000770B8EEA95E00E94E70DD5E0E12CF12C49
:10439000C8E0132D1D1B21E02D0F412F65E06C0F90
:1043A0008EEA95E00E94491D26E04EE26C2F8EEACF
:1043B00095E00E94271C80917F01082E000C990B2C
:1043C000E816F90644F40D2F24E0412F6C2F8EEAF5
:1043D00095E00E944A1CC85F8FEFE81AF80ADC5F7C
:1043E000C035B9F63FCF80917605813009F487CF8B
:1043F00080917705813009F04FCF81CF8091B3054F
:1044000090E0919581959109C82FCC0FC80FCC0FE2
:10441000C250213089F485E895E00E94A51BDD2E6D
:104420006ECE8091B30590E0919581959109C82F4A
:10443000CC0FC80FCC0FC25040E065EA72E085E8AF
:1044400095E00E94711B5BCE80917F01815080932B
:104450007F0177CF1092B1051092B00589E091E00D
:104460009093AF058093AE0580E090E0FC01E955A4
:10447000FC4F108211820296883B21E09207B1F72F
:1044800010925F05109242061092410689E091E079
:104490009093400680933F061092C9061092C8067A
:1044A0009093C7068093C6061092EF051092F00510
:1044B0001092ED051092EE051092EB051092EC05AE
:1044C0001092E9051092EA051092E7051092E805AE
:1044D00008958F929F92AF92BF92CF92DF92EF9208
:1044E000FF92CF93DF93EC01688179818A819B8170
:1044F000611571058105910521F464E279ED8BE583
:1045000097E02DE133EF41E050E00E94DB224901CA
:104510005A019B01AC01A7EAB1E40E94FA226B01A7
:104520007C01ACEEB4EFA50194010E940823DC01EC
:10453000CB018C0D9D1DAE1DBF1DB7FF03C00197A4
:10454000A109B04888839983AA83BB83BC01CD01AC
:104550009F77DF91CF91FF90EF90DF90CF90BF904A
:10456000AF909F908F9008950E946922089581E0F6
:1045700091E00E9469220895609301017093020105
:1045800080930301909304010895F999FECF92BDA1
:1045900081BDF89A992780B50895262FF999FECF05
:1045A0001FBA92BD81BD20BD0FB6F894FA9AF99A50
:1045B0000FBE01960895052E97FB1EF400940E94ED
:1045C000F22257FD07D00E940D2307FC03D04EF4C2
:1045D0000C94F22250954095309521953F4F4F4FC6
:1045E0005F4F089590958095709561957F4F8F4F9F
:1045F0009F4F08950E942F23A59F900DB49F900D6B
:10460000A49F800D911D11240895B7FF0C94FA22E8
:104610000E94FA22821B930B0895A1E21A2EAA1B74
:10462000BB1BFD010DC0AA1FBB1FEE1FFF1FA21762
:10463000B307E407F50720F0A21BB30BE40BF50B5F
:10464000661F771F881F991F1A9469F760957095E8
:10465000809590959B01AC01BD01CF010895A29F6B
:10466000B001B39FC001A39F700D811D1124911D46
:10467000B29F700D811D1124911D08950E94B223D7
:1046800088F09F5798F0B92F9927B751B0F0E1F013
:10469000660F771F881F991F1AF0BA95C9F714C0C3
:1046A000B13091F00E94CC23B1E008950C94CC235A
:1046B000672F782F8827B85F39F0B93FCCF38695FC
:1046C00077956795B395D9F73EF490958095709559
:1046D00061957F4F8F4F9F4F0895E89409C097FBD6
:1046E0003EF490958095709561957F4F8F4F9F4FC9
:1046F0009923A9F0F92F96E9BB279395F69587950D
:1047000077956795B795F111F8CFFAF4BB0F11F4CF
:1047100060FF1BC06F5F7F4F8F4F9F4F16C0882376
:1047200011F096E911C0772321F09EE8872F762FAC
:1047300005C0662371F096E8862F70E060E02AF0ED
:104740009A95660F771F881FDAF7880F96958795D9
:1047500097F9089557FD9058440F551F59F05F3F42
:1047600071F04795880F97FB991F61F09F3F79F093
:1047700087950895121613061406551FF2CF469515
:10478000F1DF08C0161617061806991FF1CF869597
:104790007105610508940895E894BB27662777277B
:1047A000CB0197F908950E94E6230C9457240E94A8
:1047B000492438F00E94502420F0952311F00C94E5
:1047C00040240C94462411240C94CD230E94AA2347
:1047D00070F3959FC1F3950F50E0551F629FF00154
:1047E000729FBB27F00DB11D639FAA27F00DB11D6D
:1047F000AA1F649F6627B00DA11D661F829F2227F6
:10480000B00DA11D621F739FB00DA11D621F839F7C
:10481000A00D611D221F749F3327A00D611D231F52
:10482000849F600D211D822F762F6A2F11249F57A0
:1048300050409AF0F1F088234AF0EE0FFF1FBB1FA3
:10484000661F771F881F91505040A9F79E3F510562
:1048500080F00C9440240C94CD235F3FE4F3983E09
:10486000D4F3869577956795B795F795E7959F5F0C
:10487000C1F7FE2B880F911D9695879597F908959E
:1048800097F99F6780E870E060E008959FEF80EC03
:10489000089500240A9416161706180609060895A6
:1048A00000240A9412161306140605060895092E0C
:1048B0000394000C11F4882352F0BB0F40F4BF2B7B
:1048C00011F460FF04C06F5F7F4F8F4F9F4F0895BB
:1048D000DB018F939F930E94FA22BF91AF91A29F19
:1048E000800D911DA39F900DB29F900D11240895EE
:1048F000991B79E004C0991F961708F0961B881F32
:104900007A95C9F78095089597FB072E16F40094C1
:1049100007D077FD09D00E94982407FC05D03EF40B
:10492000909581959F4F0895709561957F4F08955B
:10493000AA1BBB1B51E107C0AA1FBB1FA617B707C5
:1049400010F0A61BB70B881F991F5A95A9F78095E1
:104950009095BC01CD010895EE0FFF1F0590F491D5
:10496000E02D099481E090E0F8940C94BE24FB01C2
:10497000DC0101900D920020E1F70895F894FFCF3B
:10498000010100000000000000151D7D1873047275
:0C499000040D0A004C4F41444552000049
:00000001FF
